{
  "_format": "hh-sol-artifact-1",
  "contractName": "MilestoneFund",
  "sourceName": "contracts/MilestoneFund.sol",
  "abi": [
    {
      "inputs": [],
      "stateMutability": "nonpayable",
      "type": "constructor"
    },
    {
      "inputs": [
        {
          "internalType": "address",
          "name": "owner",
          "type": "address"
        }
      ],
      "name": "OwnableInvalidOwner",
      "type": "error"
    },
    {
      "inputs": [
        {
          "internalType": "address",
          "name": "account",
          "type": "address"
        }
      ],
      "name": "OwnableUnauthorizedAccount",
      "type": "error"
    },
    {
      "inputs": [],
      "name": "ReentrancyGuardReentrantCall",
      "type": "error"
    },
    {
      "anonymous": false,
      "inputs": [
        {
          "indexed": true,
          "internalType": "address",
          "name": "creator",
          "type": "address"
        },
        {
          "indexed": false,
          "internalType": "string",
          "name": "title",
          "type": "string"
        },
        {
          "indexed": false,
          "internalType": "uint256",
          "name": "fundingGoal",
          "type": "uint256"
        },
        {
          "indexed": false,
          "internalType": "uint256",
          "name": "deadline",
          "type": "uint256"
        },
        {
          "indexed": false,
          "internalType": "uint256",
          "name": "milestoneCount",
          "type": "uint256"
        }
      ],
      "name": "CampaignCreated",
      "type": "event"
    },
    {
      "anonymous": false,
      "inputs": [
        {
          "indexed": true,
          "internalType": "address",
          "name": "backer",
          "type": "address"
        },
        {
          "indexed": false,
          "internalType": "uint256",
          "name": "amount",
          "type": "uint256"
        }
      ],
      "name": "ContributionReceived",
      "type": "event"
    },
    {
      "anonymous": false,
      "inputs": [
        {
          "indexed": false,
          "internalType": "bool",
          "name": "success",
          "type": "bool"
        }
      ],
      "name": "FundingFinalized",
      "type": "event"
    },
    {
      "anonymous": false,
      "inputs": [
        {
          "indexed": true,
          "internalType": "uint256",
          "name": "milestoneIndex",
          "type": "uint256"
        }
      ],
      "name": "GracePeriodExpired",
      "type": "event"
    },
    {
      "anonymous": false,
      "inputs": [
        {
          "indexed": true,
          "internalType": "uint256",
          "name": "milestoneIndex",
          "type": "uint256"
        },
        {
          "indexed": false,
          "internalType": "uint256",
          "name": "graceDeadline",
          "type": "uint256"
        }
      ],
      "name": "GracePeriodStarted",
      "type": "event"
    },
    {
      "anonymous": false,
      "inputs": [
        {
          "indexed": true,
          "internalType": "uint256",
          "name": "milestoneIndex",
          "type": "uint256"
        },
        {
          "indexed": false,
          "internalType": "uint256",
          "name": "votingDeadline",
          "type": "uint256"
        }
      ],
      "name": "MilestoneResubmitted",
      "type": "event"
    },
    {
      "anonymous": false,
      "inputs": [
        {
          "indexed": true,
          "internalType": "uint256",
          "name": "milestoneIndex",
          "type": "uint256"
        },
        {
          "indexed": false,
          "internalType": "uint256",
          "name": "votingDeadline",
          "type": "uint256"
        }
      ],
      "name": "MilestoneSubmitted",
      "type": "event"
    },
    {
      "anonymous": false,
      "inputs": [
        {
          "indexed": true,
          "internalType": "address",
          "name": "previousOwner",
          "type": "address"
        },
        {
          "indexed": true,
          "internalType": "address",
          "name": "newOwner",
          "type": "address"
        }
      ],
      "name": "OwnershipTransferred",
      "type": "event"
    },
    {
      "anonymous": false,
      "inputs": [
        {
          "indexed": true,
          "internalType": "address",
          "name": "backer",
          "type": "address"
        },
        {
          "indexed": false,
          "internalType": "uint256",
          "name": "amount",
          "type": "uint256"
        }
      ],
      "name": "RefundClaimed",
      "type": "event"
    },
    {
      "anonymous": false,
      "inputs": [
        {
          "indexed": true,
          "internalType": "address",
          "name": "voter",
          "type": "address"
        },
        {
          "indexed": true,
          "internalType": "uint256",
          "name": "milestoneIndex",
          "type": "uint256"
        },
        {
          "indexed": false,
          "internalType": "bool",
          "name": "approve",
          "type": "bool"
        },
        {
          "indexed": false,
          "internalType": "uint256",
          "name": "weight",
          "type": "uint256"
        }
      ],
      "name": "VoteCast",
      "type": "event"
    },
    {
      "anonymous": false,
      "inputs": [
        {
          "indexed": true,
          "internalType": "uint256",
          "name": "milestoneIndex",
          "type": "uint256"
        },
        {
          "indexed": false,
          "internalType": "bool",
          "name": "approved",
          "type": "bool"
        }
      ],
      "name": "VoteFinalized",
      "type": "event"
    },
    {
      "inputs": [
        {
          "internalType": "address",
          "name": "",
          "type": "address"
        }
      ],
      "name": "backers",
      "outputs": [
        {
          "internalType": "uint256",
          "name": "amountContributed",
          "type": "uint256"
        },
        {
          "internalType": "bool",
          "name": "refundClaimed",
          "type": "bool"
        }
      ],
      "stateMutability": "view",
      "type": "function"
    },
    {
      "inputs": [],
      "name": "campaign",
      "outputs": [
        {
          "internalType": "address",
          "name": "creator",
          "type": "address"
        },
        {
          "internalType": "string",
          "name": "title",
          "type": "string"
        },
        {
          "internalType": "string",
          "name": "description",
          "type": "string"
        },
        {
          "internalType": "uint256",
          "name": "fundingGoal",
          "type": "uint256"
        },
        {
          "internalType": "uint256",
          "name": "totalRaised",
          "type": "uint256"
        },
        {
          "internalType": "uint256",
          "name": "deadline",
          "type": "uint256"
        },
        {
          "internalType": "uint256",
          "name": "currentMilestone",
          "type": "uint256"
        },
        {
          "internalType": "enum MilestoneFund.Status",
          "name": "status",
          "type": "uint8"
        },
        {
          "internalType": "uint256",
          "name": "votingThreshold",
          "type": "uint256"
        },
        {
          "internalType": "uint256",
          "name": "quorum",
          "type": "uint256"
        },
        {
          "internalType": "uint256",
          "name": "minContributionToVote",
          "type": "uint256"
        },
        {
          "internalType": "uint256",
          "name": "gracePeriodDuration",
          "type": "uint256"
        },
        {
          "internalType": "uint256",
          "name": "votingPeriodDuration",
          "type": "uint256"
        },
        {
          "internalType": "uint256",
          "name": "milestoneCount",
          "type": "uint256"
        },
        {
          "internalType": "uint256",
          "name": "releasedAmount",
          "type": "uint256"
        }
      ],
      "stateMutability": "view",
      "type": "function"
    },
    {
      "inputs": [],
      "name": "campaignCreated",
      "outputs": [
        {
          "internalType": "bool",
          "name": "",
          "type": "bool"
        }
      ],
      "stateMutability": "view",
      "type": "function"
    },
    {
      "inputs": [],
      "name": "claimRefund",
      "outputs": [],
      "stateMutability": "nonpayable",
      "type": "function"
    },
    {
      "inputs": [],
      "name": "contribute",
      "outputs": [],
      "stateMutability": "payable",
      "type": "function"
    },
    {
      "inputs": [
        {
          "components": [
            {
              "internalType": "address",
              "name": "creator",
              "type": "address"
            },
            {
              "internalType": "string",
              "name": "title",
              "type": "string"
            },
            {
              "internalType": "string",
              "name": "description",
              "type": "string"
            },
            {
              "internalType": "uint256",
              "name": "fundingGoal",
              "type": "uint256"
            },
            {
              "internalType": "uint256",
              "name": "deadline",
              "type": "uint256"
            },
            {
              "internalType": "uint256[]",
              "name": "payoutRatios",
              "type": "uint256[]"
            },
            {
              "internalType": "uint256",
              "name": "votingThreshold",
              "type": "uint256"
            },
            {
              "internalType": "uint256",
              "name": "quorum",
              "type": "uint256"
            },
            {
              "internalType": "uint256",
              "name": "minContributionToVote",
              "type": "uint256"
            },
            {
              "internalType": "uint256",
              "name": "gracePeriodDuration",
              "type": "uint256"
            },
            {
              "internalType": "uint256",
              "name": "votingPeriodDuration",
              "type": "uint256"
            }
          ],
          "internalType": "struct MilestoneFund.CreateParams",
          "name": "params",
          "type": "tuple"
        }
      ],
      "name": "createCampaign",
      "outputs": [],
      "stateMutability": "nonpayable",
      "type": "function"
    },
    {
      "inputs": [],
      "name": "finalizeFunding",
      "outputs": [],
      "stateMutability": "nonpayable",
      "type": "function"
    },
    {
      "inputs": [],
      "name": "finalizeVote",
      "outputs": [],
      "stateMutability": "nonpayable",
      "type": "function"
    },
    {
      "inputs": [
        {
          "internalType": "address",
          "name": "user",
          "type": "address"
        }
      ],
      "name": "getBackerContribution",
      "outputs": [
        {
          "internalType": "uint256",
          "name": "",
          "type": "uint256"
        }
      ],
      "stateMutability": "view",
      "type": "function"
    },
    {
      "inputs": [],
      "name": "getCampaignInfo",
      "outputs": [
        {
          "internalType": "address",
          "name": "creator",
          "type": "address"
        },
        {
          "internalType": "string",
          "name": "title",
          "type": "string"
        },
        {
          "internalType": "string",
          "name": "description",
          "type": "string"
        },
        {
          "internalType": "uint256",
          "name": "fundingGoal",
          "type": "uint256"
        },
        {
          "internalType": "uint256",
          "name": "totalRaised",
          "type": "uint256"
        },
        {
          "internalType": "uint256",
          "name": "deadline",
          "type": "uint256"
        },
        {
          "internalType": "uint256",
          "name": "currentMilestone",
          "type": "uint256"
        },
        {
          "internalType": "enum MilestoneFund.Status",
          "name": "status",
          "type": "uint8"
        },
        {
          "internalType": "uint256",
          "name": "votingThreshold",
          "type": "uint256"
        },
        {
          "internalType": "uint256",
          "name": "quorum",
          "type": "uint256"
        },
        {
          "internalType": "uint256",
          "name": "minContributionToVote",
          "type": "uint256"
        },
        {
          "internalType": "uint256",
          "name": "gracePeriodDuration",
          "type": "uint256"
        },
        {
          "internalType": "uint256",
          "name": "votingPeriodDuration",
          "type": "uint256"
        },
        {
          "internalType": "uint256",
          "name": "milestoneCount",
          "type": "uint256"
        },
        {
          "internalType": "uint256",
          "name": "releasedAmount",
          "type": "uint256"
        }
      ],
      "stateMutability": "view",
      "type": "function"
    },
    {
      "inputs": [],
      "name": "getEffectiveStatus",
      "outputs": [
        {
          "internalType": "enum MilestoneFund.Status",
          "name": "",
          "type": "uint8"
        }
      ],
      "stateMutability": "view",
      "type": "function"
    },
    {
      "inputs": [],
      "name": "getMilestoneCount",
      "outputs": [
        {
          "internalType": "uint256",
          "name": "",
          "type": "uint256"
        }
      ],
      "stateMutability": "view",
      "type": "function"
    },
    {
      "inputs": [
        {
          "internalType": "uint256",
          "name": "index",
          "type": "uint256"
        }
      ],
      "name": "getMilestoneInfo",
      "outputs": [
        {
          "internalType": "uint256",
          "name": "payoutRatio",
          "type": "uint256"
        },
        {
          "internalType": "uint256",
          "name": "yesVotes",
          "type": "uint256"
        },
        {
          "internalType": "uint256",
          "name": "noVotes",
          "type": "uint256"
        },
        {
          "internalType": "uint256",
          "name": "votingDeadline",
          "type": "uint256"
        },
        {
          "internalType": "uint256",
          "name": "graceDeadline",
          "type": "uint256"
        },
        {
          "internalType": "bool",
          "name": "graceUsed",
          "type": "bool"
        },
        {
          "internalType": "bool",
          "name": "fundsReleased",
          "type": "bool"
        }
      ],
      "stateMutability": "view",
      "type": "function"
    },
    {
      "inputs": [
        {
          "internalType": "address",
          "name": "user",
          "type": "address"
        }
      ],
      "name": "getRefundableAmount",
      "outputs": [
        {
          "internalType": "uint256",
          "name": "",
          "type": "uint256"
        }
      ],
      "stateMutability": "view",
      "type": "function"
    },
    {
      "inputs": [
        {
          "internalType": "uint256",
          "name": "",
          "type": "uint256"
        },
        {
          "internalType": "uint256",
          "name": "",
          "type": "uint256"
        },
        {
          "internalType": "address",
          "name": "",
          "type": "address"
        }
      ],
      "name": "hasVoted",
      "outputs": [
        {
          "internalType": "bool",
          "name": "",
          "type": "bool"
        }
      ],
      "stateMutability": "view",
      "type": "function"
    },
    {
      "inputs": [],
      "name": "manualFinalizeFunding",
      "outputs": [],
      "stateMutability": "nonpayable",
      "type": "function"
    },
    {
      "inputs": [
        {
          "internalType": "uint256",
          "name": "",
          "type": "uint256"
        }
      ],
      "name": "milestones",
      "outputs": [
        {
          "internalType": "uint256",
          "name": "payoutRatio",
          "type": "uint256"
        },
        {
          "internalType": "uint256",
          "name": "yesVotes",
          "type": "uint256"
        },
        {
          "internalType": "uint256",
          "name": "noVotes",
          "type": "uint256"
        },
        {
          "internalType": "uint256",
          "name": "votingDeadline",
          "type": "uint256"
        },
        {
          "internalType": "uint256",
          "name": "graceDeadline",
          "type": "uint256"
        },
        {
          "internalType": "bool",
          "name": "graceUsed",
          "type": "bool"
        },
        {
          "internalType": "bool",
          "name": "fundsReleased",
          "type": "bool"
        },
        {
          "internalType": "uint256",
          "name": "voteRound",
          "type": "uint256"
        }
      ],
      "stateMutability": "view",
      "type": "function"
    },
    {
      "inputs": [],
      "name": "owner",
      "outputs": [
        {
          "internalType": "address",
          "name": "",
          "type": "address"
        }
      ],
      "stateMutability": "view",
      "type": "function"
    },
    {
      "inputs": [],
      "name": "renounceOwnership",
      "outputs": [],
      "stateMutability": "nonpayable",
      "type": "function"
    },
    {
      "inputs": [],
      "name": "resubmitMilestone",
      "outputs": [],
      "stateMutability": "nonpayable",
      "type": "function"
    },
    {
      "inputs": [],
      "name": "submitMilestone",
      "outputs": [],
      "stateMutability": "nonpayable",
      "type": "function"
    },
    {
      "inputs": [],
      "name": "syncExpiredGrace",
      "outputs": [],
      "stateMutability": "nonpayable",
      "type": "function"
    },
    {
      "inputs": [
        {
          "internalType": "address",
          "name": "newOwner",
          "type": "address"
        }
      ],
      "name": "transferOwnership",
      "outputs": [],
      "stateMutability": "nonpayable",
      "type": "function"
    },
    {
      "inputs": [
        {
          "internalType": "bool",
          "name": "approve",
          "type": "bool"
        }
      ],
      "name": "voteMilestone",
      "outputs": [],
      "stateMutability": "nonpayable",
      "type": "function"
    },
    {
      "stateMutability": "payable",
      "type": "receive"
    }
  ],
  "bytecode": "0x60808060405234609957331560835760008054336001600160a01b0319821681178355916001600160a01b03909116907f8be0079c531659141344cd1fd0a4f28419497f9722a3daafe3b4186f6b6457e09080a360017f9b779b17422d0df92223018b32b4d1fa46e071723d6817e2486d003becc55f00556124a8908161009f8239f35b631e4fbdf760e01b600052600060045260246000fd5b600080fdfe6080604052600436101561001b575b361561001957600080fd5b005b60003560e01c8062ff3b9214611a7857806309357470146118635780630d39a1d3146117fd578063198c6a3914610df4578063507da76b14610dd157806354ef7f2d14610a5b578063715018a614610a02578063740e2198146109d7578063811e539c1461096b57806384807146146109445780638da5cb5b1461091b5780638f4cf247146108fd578063912b7fc8146108d35780639fbcc8351461076d578063a19ed39d146106e8578063a3834f16146106ac578063a6bca10214610657578063b5545a3c14610443578063b85dfb80146103fb578063d6290cd714610388578063d7bb99ba1461023c578063e89e4ed6146101b5578063f2fde38b146101665763ff48826b0361000e5734610161576020366003190112610161576001600160a01b03610148611aed565b1660005260126020526020604060002054604051908152f35b600080fd5b346101615760203660031901126101615761017f611aed565b6101876122a4565b6001600160a01b0381161561019f5761001990612221565b631e4fbdf760e01b600052600060045260246000fd5b3461016157602036600319011261016157600435601154811015610161576101df61010091611e0b565b5080549060ff6001820154916002810154600382015460048301549160066005850154940154956040519788526020880152604087015260608601526080850152818116151560a085015260081c16151560c083015260e0820152f35b600036600319011261016157610250612268565b61025e60ff60105416611ea2565b60ff600854166006811015610372576102779015611ee5565b6006544210156103365734156102f15761029334600554611f61565b60055533600052601260205260406000206102af348254611f61565b90556040513481527f1bb460ccaaf70fbacfec17a376f8acbd278c1405590ffcc8ebe4b88daf4f64ad60203392a2600160008051602061245383398151915255005b60405162461bcd60e51b815260206004820152601860248201527f436f6e747269627574696f6e206d757374206265203e203000000000000000006044820152606490fd5b60405162461bcd60e51b8152602060048201526014602482015273119d5b991a5b99c81c195c9a5bd908195b99195960621b6044820152606490fd5b634e487b7160e01b600052602160045260246000fd5b3461016157600036600319011261016157600160a01b6001900360015416600454906005549060065460075460085460ff16600954600a54600b5490600c5492600d5494600e5496600f54986103dc611bdc565b9b6103e5611c95565b9d6040519e8f9e8f9e6103f79f611d7a565b0390f35b34610161576020366003190112610161576001600160a01b0361041c611aed565b16600052601260205260408060002060ff6001825492015416825191825215156020820152f35b346101615760003660031901126101615761045c612268565b61046a60ff60105416611ea2565b61047261233f565b60ff6008541660068110156103725760040361062557336000526012602052604060002080549081156105ee5760010180549160ff83166105b0576104cf906104ca600554916104c4600f5484611fe5565b90611f82565b611f95565b9182156105745760ff19166001179055600080808084335af16104f0611fb5565b5015610536576040519081527f358fe4192934d3bf28ae181feda1f4bd08ca67f5e2fad55582cce5eb67304ae960203392a2600160008051602061245383398151915255005b60405162461bcd60e51b81526020600482015260166024820152751499599d5b99081d1c985b9cd9995c8819985a5b195960521b6044820152606490fd5b60405162461bcd60e51b8152602060048201526014602482015273139bc81c99599d5b9918589b1948185b5bdd5b9d60621b6044820152606490fd5b60405162461bcd60e51b81526020600482015260166024820152751499599d5b9908185b1c9958591e4818db185a5b595960521b6044820152606490fd5b60405162461bcd60e51b815260206004820152600f60248201526e27379031b7b73a3934b13aba34b7b760891b6044820152606490fd5b60405162461bcd60e51b815260206004820152600a602482015269139bdd0819985a5b195960b21b6044820152606490fd5b346101615760003660031901126101615761067660ff60105416611ea2565b61068b60018060a01b036001541633146120a0565b60ff600854166006811015610372576106a49015611ee5565b6100196123c4565b34610161576000366003190112610161576106cb60ff60105416611ea2565b6106e060018060a01b036001541633146120a0565b6100196120da565b346101615760003660031901126101615761070760ff60105416611ea2565b60ff600854166006811015610372576107209015611ee5565b6006544210610731576100196123c4565b60405162461bcd60e51b815260206004820152601460248201527346756e64696e67207374696c6c2061637469766560601b6044820152606490fd5b346101615760003660031901126101615761078c60ff60105416611ea2565b6107a160018060a01b036001541633146120a0565b60ff6008541660068110156103725760016107bc9114611ee5565b600754600e54811015610899576107d290611e0b565b5060ff600582015460081c1661085457600060018201556000600282015560016006610800600d5442611f61565b9260038101938455600060048201550155610823600260ff196008541617600855565b7f26cf581e2709e0615164af15a371b2dd10fb48d5baed91e9eacd557633c16bcb60206007549254604051908152a2005b60405162461bcd60e51b815260206004820152601a60248201527f4d696c6573746f6e6520616c72656164792072656c65617365640000000000006044820152606490fd5b60405162461bcd60e51b81526020600482015260126024820152714e6f206d6f7265206d696c6573746f6e657360701b6044820152606490fd5b346101615760003660031901126101615760206108ee6122cd565b6108fb6040518092611d6d565bf35b34610161576000366003190112610161576020601154604051908152f35b34610161576000366003190112610161576000546040516001600160a01b039091168152602090f35b346101615760003660031901126101615761096360ff60105416611ea2565b61001961233f565b34610161576000366003190112610161576001546001600160a01b0316610990611bdc565b610998611c95565b9160045460055460065460075460085460ff16600954600a5490600b5492600c5494600d5496600e5498600f549a6040519e8f9e8f9e6103f79f611d7a565b346101615760203660031901126101615760206109fa6109f5611aed565b611ff2565b604051908152f35b3461016157600036600319011261016157610a1b6122a4565b600080546001600160a01b0319811682556001600160a01b03167f8be0079c531659141344cd1fd0a4f28419497f9722a3daafe3b4186f6b6457e08280a3005b3461016157600036600319011261016157610a74612268565b610a8260ff60105416611ea2565b60ff600854166006811015610372576002610a9d9114611ee5565b600754610aad600e548210611f21565b610ab681611e0b565b50906003820154421115610d96576001820154610ad7600284015482611f61565b600091829160055480610d57575b5080610d2c575b505081610d24575b5015610c7457506064610b0b600554835490611f82565b0490814710610c2f576000808093600582940161010061ff0019825416179055610b3781600f54611f61565b600f556001546001600160a01b03165af1610b50611fb5565b5015610bf857600754807fa12dd7d44a6ee7489fcbbfaf9d2b201c238ed243077e92e8e8d3afcb099af54b602060405160018152a260018101809111610bd057600e541115610be65760075460018101809111610bd057600755610bbc600160ff196008541617600855565b600160008051602061245383398151915255005b634e487b7160e01b600052601160045260246000fd5b600560ff196008541617600855610bbc565b60405162461bcd60e51b815260206004820152600f60248201526e151c985b9cd9995c8819985a5b1959608a1b6044820152606490fd5b60405162461bcd60e51b815260206004820152601d60248201527f496e73756666696369656e7420636f6e74726163742062616c616e63650000006044820152606490fd5b7fa12dd7d44a6ee7489fcbbfaf9d2b201c238ed243077e92e8e8d3afcb099af54b602060405160008152a260058101805460ff16610d0b57600160ff198254161790556004610cc5600c5442611f61565b9101908155600360ff1960085416176008557f850e821388cbf246fb93b12357651e23887c72f848742c21dbff137031b1356b60206007549254604051908152a2610bbc565b5050610d1f600460ff196008541617600855565b610bbc565b905083610af4565b909150606482029180830460641490151715610bd057600954610d4e91611f82565b11158480610aec565b6064829592029185830460641486151715610d825750600a54610d7991611f82565b11159286610ae5565b634e487b7160e01b81526011600452602490fd5b60405162461bcd60e51b8152602060048201526013602482015272566f74696e67207374696c6c2061637469766560681b6044820152606490fd5b3461016157600036600319011261016157602060ff601054166040519015158152f35b34610161576020366003190112610161576004356001600160401b038111610161576101606003198236030112610161576040519061016082018281106001600160401b038211176111025760405260048101356001600160a01b038116810361016157825260248101356001600160401b03811161016157610e7d9060043691840101611b5b565b916020810192835260448201356001600160401b03811161016157610ea89060043691850101611b5b565b9160408201928352606481013560608301526084810135608083015260a48101356001600160401b03811161016157810136602382011215610161576004810135906001600160401b038211611102578160051b60405192610f0d6020830185611b1f565b8352810160240190602083019036831161016157602401905b8282106117ed5750505060a083015260c082019360c4820135855260e083019160e48101358352610100840192610104820135845261012085019161012481013583526101446101408701910135815260ff601054166117a85760608601511561176357608086015142101561171e5760a086015151156116e757875180151590816116db575b5015611696578151801515908161168a575b501561165457825115611618578051156115db57600096875b60a088015180518a101561115d5789610ff091611f6e565b51156111185761100f906110088a60a08b0151611f6e565b5190611f61565b9761101e8160a08a0151611f6e565b51906040519161102d83611b03565b82526020820191600083526040810190600082526060810160008152608082016000815260a08301906000825260c08401906000825260e08501936000855260115468010000000000000000811015611102578060016110909201601155611e0b565b9790976110ec57600199600697518955518a890155516002880155516003870155516004860155600585019151151560ff8019845416911617825551151561ff0082549160081b169061ff001916179055519101550197610fd8565b634e487b7160e01b600052600060045260246000fd5b634e487b7160e01b600052604160045260246000fd5b60405162461bcd60e51b815260206004820152601b60248201527f4d696c6573746f6e6520726174696f206d757374206265203e203000000000006044820152606490fd5b5090898760648a9594036115965760018060a01b0385511695885193519260608701516080880151915192519351995196519460a089015151966040519a6101e08c018c81106001600160401b03821117611102576040528b5260208b015260408a015260608901526000608089015260a0880152600060c0880152600060e08801526101008701526101208601526101408501958652610160850192835261018085019081526101a085019182526101c08501926000845260018060a01b038651166bffffffffffffffffffffffff60a01b600154161760015560208601518051906001600160401b03821161110257819061125b600254611ba2565b601f8111611526575b50602090601f83116001146114be576000926114b3575b50508160011b916000199060031b1c1916176002555b60408601518051906001600160401b0382116111025781906112b4600354611ba2565b601f8111611443575b50602090601f83116001146113db576000926113d0575b50508160011b916000199060031b1c1916176003555b6060860151600455608086015160055560a086015160065560c086015160075560e0860151966006881015610372576101206113bb977f3d8b8fbe2542ee20471c9a679e48c2223c64556e72cc69bb8dc778dc77a4c5f39960ff8019600854169116176008556101008101516009550151600a5551600b5551600c5551600d5551600e5551600f55600160ff19601054161760105560018060a01b038151169361139385612221565b519060608101519060a060808201519101515190604051948594608086526080860190611d2c565b926020850152604084015260608301520390a2005b015190508a806112d4565b600360009081528281209350601f198516905b81811061142b5750908460019594939210611412575b505050811b016003556112ea565b015160001960f88460031b161c191690558a8080611404565b929360206001819287860151815501950193016113ee565b60036000529091507fc2575a0e9e593c00f959f8c92f12db2869c3395a3b0502d05e2516446f71f85b601f840160051c810191602085106114a9575b90601f859493920160051c01905b81811061149a57506112bd565b6000815584935060010161148d565b909150819061147f565b015190508a8061127b565b600260009081528281209350601f198516905b81811061150e57509084600195949392106114f5575b505050811b01600255611291565b015160001960f88460031b161c191690558a80806114e7565b929360206001819287860151815501950193016114d1565b60026000529091507f405787fa12a823e0f2b7631cc41b3ba8828b3321ca811111fa75cd3aa3bb5ace601f840160051c8101916020851061158c575b90601f859493920160051c01905b81811061157d5750611264565b60008155849350600101611570565b9091508190611562565b60405162461bcd60e51b815260206004820152601d60248201527f5061796f757420726174696f73206d7573742073756d20746f203130300000006044820152606490fd5b60405162461bcd60e51b8152602060048201526015602482015274125b9d985b1a59081d9bdd1a5b99c81c195c9a5bd9605a1b6044820152606490fd5b60405162461bcd60e51b8152602060048201526014602482015273125b9d985b1a590819dc9858d9481c195c9a5bd960621b6044820152606490fd5b60405162461bcd60e51b815260206004820152600e60248201526d496e76616c69642071756f72756d60901b6044820152606490fd5b60649150111589610fbf565b60405162461bcd60e51b815260206004820152601860248201527f496e76616c696420766f74696e67207468726573686f6c6400000000000000006044820152606490fd5b60649150111589610fad565b60405162461bcd60e51b815260206004820152600f60248201526e4e656564206d696c6573746f6e657360881b6044820152606490fd5b60405162461bcd60e51b815260206004820152601a60248201527f446561646c696e65206d75737420626520696e206675747572650000000000006044820152606490fd5b60405162461bcd60e51b815260206004820152601860248201527f46756e64696e6720676f616c206d757374206265203e203000000000000000006044820152606490fd5b60405162461bcd60e51b815260206004820152601860248201527f43616d706169676e20616c7265616479206372656174656400000000000000006044820152606490fd5b8135815260209182019101610f26565b34610161576060366003190112610161576044356001600160a01b0381168103610161576004356000526013602052604060002060243560005260205260406000209060018060a01b0316600052602052602060ff604060002054166040519015158152f35b34610161576020366003190112610161576004358015158082036101615761188f60ff60105416611ea2565b60ff6008541660068110156103725760026118aa9114611ee5565b6007546118ba600e548210611f21565b6118c381611e0b565b509060038201544211611a4457336000526012602052604060002054600b5411611a0857600052601360205260406000209060068101918254600052602052604060002060018060a01b03331660005260205260ff604060002054166119d357336000526012602052604060002054936000146119be57600101611948848254611f61565b90555b600754600052601360205260406000209054600052602052604060002060018060a01b0333166000526020526040600020600160ff198254161790556007549160405191825260208201527f877856338e13f63d0c36822ff0ef736b80934cd90574a3a5bc9262c39d217c4660403392a3005b6002016119cc848254611f61565b905561194b565b60405162461bcd60e51b815260206004820152600d60248201526c105b1c9958591e481d9bdd1959609a1b6044820152606490fd5b60405162461bcd60e51b81526020600482015260146024820152734e6f7420656c696769626c6520746f20766f746560601b6044820152606490fd5b60405162461bcd60e51b815260206004820152600c60248201526b159bdd1a5b99c8195b99195960a21b6044820152606490fd5b346101615760203660031901126101615760e0611a9f611a99600435611e0b565b50611e40565b8051906020810151906040810151606082015160808301519160c060a08501511515940151151594604051968752602087015260408601526060850152608084015260a083015260c0820152f35b600435906001600160a01b038216820361016157565b61010081019081106001600160401b0382111761110257604052565b90601f801991011681019081106001600160401b0382111761110257604052565b6001600160401b03811161110257601f01601f191660200190565b81601f8201121561016157803590611b7282611b40565b92611b806040519485611b1f565b8284526020838301011161016157816000926020809301838601378301015290565b90600182811c92168015611bd2575b6020831014611bbc57565b634e487b7160e01b600052602260045260246000fd5b91607f1691611bb1565b6040519060008260025491611bf083611ba2565b8083529260018116908115611c765750600114611c16575b611c1492500383611b1f565b565b506002600090815290917f405787fa12a823e0f2b7631cc41b3ba8828b3321ca811111fa75cd3aa3bb5ace5b818310611c5a575050906020611c1492820101611c08565b6020919350806001915483858901015201910190918492611c42565b60209250611c1494915060ff191682840152151560051b820101611c08565b6040519060008260035491611ca983611ba2565b8083529260018116908115611c765750600114611ccc57611c1492500383611b1f565b506003600090815290917fc2575a0e9e593c00f959f8c92f12db2869c3395a3b0502d05e2516446f71f85b5b818310611d10575050906020611c1492820101611c08565b6020919350806001915483858901015201910190918492611cf8565b919082519283825260005b848110611d58575050826000602080949584010152601f8019910116010190565b80602080928401015182828601015201611d37565b9060068210156103725752565b9b989591939f9e9d9a97938c6101c09e9b9894611db6611dc493611de3999560018060a01b031684526101e060208501526101e0840190611d2c565b916040818403910152611d2c565b9f60608d015260808c015260a08b015260c08a015260e0890190611d6d565b6101008701526101208601526101408501526101608401526101808301526101a08201520152565b601154811015611e2a5760116000526007602060002091020190600090565b634e487b7160e01b600052603260045260246000fd5b90604051611e4d81611b03565b60e060068294805484526001810154602085015260028101546040850152600381015460608501526004810154608085015260ff6005820154818116151560a087015260081c16151560c08501520154910152565b15611ea957565b60405162461bcd60e51b815260206004820152601460248201527310d85b5c185a59db881b9bdd0818dc99585d195960621b6044820152606490fd5b15611eec57565b60405162461bcd60e51b815260206004820152600d60248201526c496e76616c696420737461746560981b6044820152606490fd5b15611f2857565b60405162461bcd60e51b8152602060048201526011602482015270496e76616c6964206d696c6573746f6e6560781b6044820152606490fd5b91908201809211610bd057565b8051821015611e2a5760209160051b010190565b81810292918115918404141715610bd057565b8115611f9f570490565b634e487b7160e01b600052601260045260246000fd5b3d15611fe0573d90611fc682611b40565b91611fd46040519384611b1f565b82523d6000602084013e565b606090565b91908203918211610bd057565b611ffa6122cd565b600681101561037257600403612087576001600160a01b03166000908152601260205260409081902081519182016001600160401b038111838210176111025760405260ff60018254928385520154161590811580602085015291612097575b50801561208d575b61208757612084906104ca6005549161207d600f5484611fe5565b9051611f82565b90565b50600090565b5060055415612062565b9050153861205a565b156120a757565b60405162461bcd60e51b815260206004820152600b60248201526a2737ba1031b932b0ba37b960a91b6044820152606490fd5b6120e261233f565b60ff60085416600681101561037257600303611c145761211060075461210b600e548210611f21565b611e0b565b5060ff600582015416156121dc57600481015442116121a05760006001820155600060028201556006612145600d5442611f61565b91600381019283550180549060018201809211610bd0575561216f600260ff196008541617600855565b7fcb85fe3ae84d57a5cc8b34e167da593cc1ffc1acc62bfd6c72aad66b5f95369360206007549254604051908152a2565b60405162461bcd60e51b815260206004820152601460248201527311dc9858d9481c195c9a5bd908195e1c1a5c995960621b6044820152606490fd5b60405162461bcd60e51b815260206004820152601860248201527f477261636520706572696f64206e6f7420656e61626c656400000000000000006044820152606490fd5b600080546001600160a01b039283166001600160a01b03198216811783559216907f8be0079c531659141344cd1fd0a4f28419497f9722a3daafe3b4186f6b6457e09080a3565b6002600080516020612453833981519152541461229357600260008051602061245383398151915255565b633ee5aeb560e01b60005260046000fd5b6000546001600160a01b031633036122b857565b63118cdaa760e01b6000523360045260246000fd5b60ff60105416156123365760ff600854166006811015610372576003810361208457600754600e5481101561233257611a9961230891611e0b565b60a081015115159081612324575b5061231e5790565b50600490565b608091500151421138612316565b5090565b60ff6008541690565b60ff60085416600681101561037257600303611c1457600754600e548110156123c15761236b90611e0b565b5060ff600582015416156123c15760040154421161238557565b612397600460ff196008541617600855565b6007547f9607cd85a85d87116d8d707dc5f7460fd8e8ae11348ad0eba0869a58b403db53600080a2565b50565b60055460045411612413576123e1600160ff196008541617600855565b60006007557f5b0c67ceab5aae7d95521b5f7f80c2f307194837011530c766a31857146549d4602060405160018152a1565b612425600460ff196008541617600855565b7f5b0c67ceab5aae7d95521b5f7f80c2f307194837011530c766a31857146549d4602060405160008152a156fe9b779b17422d0df92223018b32b4d1fa46e071723d6817e2486d003becc55f00a264697066735822122030c87303f8c0c4bf239511d2415eb884b67087841626e9e969725eb178892dad64736f6c634300081c0033",
  "linkReferences": {},
  "deployedLinkReferences": {}
}